:020000040000fa
:080000000002040000000000f2
:020000040000fa
:100400008fb520000e7f24000e0188000000000040
:100410000c000700404a20000100200011000700e6
:10042000000020000000e000020032000000020096
:100430000000000078030200000000000040da0025
:100440000000fe004440a900000020000000e00081
:100450000300320000002000a00188004440a800f2
:100460000000060091018800800078000000eb0089
:1004700015003700e280400032a0b4009101ba00bc
:10048000e280400032a0b4009102ba00e280400055
:1004900032a0b4000002eb00472bde00f507b200eb
:1004a000602ce10004003a000059eb008301e900f0
:1004b000fdff3e00040037006128e100010032002a
:1004c0000082eb00040007001101ba000200e00006
:1004d000e8ff3a00000006003159ba008301e90044
:1004e0000c0032002159ba008301e90008003200f3
:1004f0000400e00003003a00e280400032a0b400b3
:10050000f5ff370011d9ba008301e900faff3a007c
:100510008100e800e180400032a0b4000000060045
:080520000040da000000fe00bb
:020000040000fa
:0200000401f009
:04000000ffff0000fe
:020000040000fa
:0200000401f009
:04000400ffff0000fa
:020000040000fa
:0200000401f009
:04000800ffff0000f6
:020000040000fa
:0200000401f009
:04000c00fbff0000f6
:020000040000fa
:0200000401f009
:040010001eff0000cf
:020000040000fa
:0200000401f009
:0400140060ff000089
:020000040000fa
:0200000401f009
:04001800ffff0000e6
:020000040000fa
:1000080090020000900200009002000090020000a0
:100018009002000090020000900200009002000090
:100028009002000090020000900200007c03000093
:100038009002000090020000900200009002000070
:100048009002000090020000900200009002000060
:100058009002000090020000900200009002000050
:100068009002000090020000900200009002000040
:100078009002000090020000900200009002000030
:100088009002000090020000900200009002000020
:1000980090020000900200001e040000f20300001d
:1000a8009002000090020000900200009002000000
:1000b80090020000900200009002000090020000f0
:1000c80090020000900200009002000090020000e0
:1000d80090020000900200009002000090020000d0
:1000e80090020000900200009002000090020000c0
:1000f80090020000900200009002000090020000b0
:10010800900200009002000090020000900200009f
:10011800900200009002000090020000900200008f
:10012800900200009002000090020000900200007f
:10013800900200009002000090020000900200006f
:10014800900200009002000090020000900200005f
:10015800900200009002000090020000900200004f
:10016800900200009002000090020000900200003f
:10017800900200009002000090020000900200002f
:10018800900200009002000090020000900200001f
:10019800900200009002000090020000900200000f
:1001a80090020000900200009002000090020000ff
:1001b80090020000900200009002000090020000ef
:1001c80090020000900200009002000090020000df
:1001d80090020000900200009002000090020000cf
:1001e80090020000900200009002000090020000bf
:0801f8009002000090020000db
:020000040000fa
:10020800900200009002000090020000900200009e
:10021800900200009002000090020000900200008e
:100228009002000090020000900200007c03000091
:10023800900200009002000090020000900200006e
:10024800900200009002000090020000900200005e
:10025800900200009002000090020000900200004e
:10026800900200009002000090020000900200003e
:10027800900200009002000090020000900200002e
:10028800900200009002000090020000900200001e
:1002980090020000900200001e040000f20300001b
:1002a80090020000900200009002000090020000fe
:1002b80090020000900200009002000090020000ee
:1002c80090020000900200009002000090020000de
:1002d80090020000900200009002000090020000ce
:1002e80090020000900200009002000090020000be
:1002f80090020000900200009002000090020000ae
:10030800900200009002000090020000900200009d
:10031800900200009002000090020000900200008d
:10032800900200009002000090020000900200007d
:10033800900200009002000090020000900200006d
:10034800900200009002000090020000900200005d
:10035800900200009002000090020000900200004d
:10036800900200009002000090020000900200003d
:10037800900200009002000090020000900200002d
:10038800900200009002000090020000900200001d
:10039800900200009002000090020000900200000d
:1003a80090020000900200009002000090020000fd
:1003b80090020000900200009002000090020000ed
:1003c80090020000900200009002000090020000dd
:1003d80090020000900200009002000090020000cd
:1003e80090020000900200009002000090020000bd
:0803f8009002000090020000d9
:020000040000fa
:10052800f0c1b3008166b7008266b7008666b7007f
:100538008766b7008866b7008966b7008e66b70019
:100548008f66b7009466b7009566b7009666b700e1
:100558009866b7009a66b7009c66b7009d66b700b4
:100568009e66b700a066b700a166b700a266b7008e
:10057800a466b700a566b700a6c6bf0001ceb30043
:10058800014060000014a000a6e6b700f0c1b30067
:10059800a766b700a866b700a966b700aa66b7003d
:1005a800ac66b700ad66b700ae66b700b466b70014
:1005b800c0c6bf0001406000c0e6b700c1c6bf00aa
:1005c80001406000c1e6b700c2c6bf00014060003c
:1005d800c2e6b700c3c6bf00014060005040b30088
:1005e800c3e6b700c4c6bf0001406000c4e6b70058
:1005f800c5c6bf0001406000c5e6b700c6c6bf005b
:1006080001406000c6e6b700c7c6bf0001406000f1
:10061800c7e6b700c8c6bf0001406000c8e6b7001b
:10062800c9c6bf0001406000c9e6b700cac6bf001e
:1006380001406000cae6b700cbc6bf0001406000b9
:10064800cbe6b700ccc6bf0001406000cce6b700df
:10065800cdc6bf0001406000cde6b700cec6bf00e2
:1006680001406000cee6b700cfc6bf000140600081
:10067800cfe6b70000000600c002a900c022a9000a
:10068800c042a900c062a900c082a900c802a9008e
:10069800c822a900c842a800c862a900c882a90047
:1006a800c8a2a900c8c2a900c8e2a900c902a90035
:1006b800c922a900c942a900c962a900c982a90022
:1006c800c9a2a900c9c2a900c9e2a9002c03a900ae
:1006d8002c23a9002c43a9002c63a9002c83a80073
:1006e8002ca3a9000000060065000700ffff3700e3
:1006f800809fbe003400f80000002000a0018800a0
:10070800c4c2bf000080fb004400de000004a20059
:10071800614060004400dd00412c200091407800d9
:100728000144a10080c0700001007800c4e2b70055
:100738008460a9003400f9004f00be0000400600a4
:100748008001780033c2bf000008a3000200320015
:10075800a31188000600370053cabf000081fb00c0
:100768000195200003f178000040e80053eab70043
:1007780000000500881f7800000478001040780009
:100788000004e000050032000000fb00ecff070059
:10079800584078000004e000fbff3a004f0478005e
:1007a8000000060011a520009140780002a5200055
:1007b8001241780082cf5000070032000040eb0061
:1007c80082c050000040e800814f5000fdff3a0011
:1007d8000240400050eab70000000600809fbe00bb
:1007e800821f78003400f80000002000a001880073
:1007f80087e0a90022a52000124178000240780075
:10080800534ae300070032008280fb000095200075
:10081800614078000080fb00a01188000240e800d9
:1008280052eab7003400f9004f0178004f00be00cb
:1008380000400600809fbe00829fbe003400f80082
:1008480000002000a001880087c0a90011a5200091
:1008580091407800b31180000181fb0000852000e1
:10086800037178008140e8000100780051eab70080
:100878003400f9004f01be004f00be0000400600e2
:10088800562aef00b1528000f0702200808f50008d
:1008980005003e0080007800562aec00b052800027
:1008a800810f5000fcff36003200070072ff07007e
:1008b8000021ef0000352c001008880000022800f5
:1008c800200888008460a90000c7b300a560b700ad
:1008d8009460a80031062000b0528000810f5000bb
:1008e800fdff360060052000c011880000002200ce
:1008f80090118800800020008011880031e2a80053
:100908003342a80087e0a900b3c0bf00f1c8b30014
:10091800014060000043b300b3e0b70097e0a800cf
:1009280087c0a900b3c0bf0081cfb30001406000f9
:100938006040b300b3e0b70097c0a800000006000d
:020000040000fa
:10094800500a00000600000002000000000000003d
:100958000002000050080000000200000000000033
:10096800560a00000200000002000000000000001b
:04097800000000007b
:020000040000fa
:10097c0020002000203a880060022000303a8800d5
:10098c0010302000103a880042c7bf000058a30066
:08099c00fdff3200000006001f
:00000001FF
