:020000040000fa
:080000000002040000000000f2
:020000040000fa
:100400004f9020000e7f24000e01880000000000a5
:100410000c000700e0482000010020001100070048
:10042000000020000000e000020032000000020096
:1004300000000000ee030200000000000040da00af
:100440000000fe004440a900000020000000e00081
:100450000300320000002000a00188004440a800f2
:100460000000060091018800800078000000eb0089
:1004700015003700e280400032a0b4009101ba00bc
:10048000e280400032a0b4009102ba00e280400055
:1004900032a0b4000002eb00472bde00f507b200eb
:1004a000602ce10004003a000059eb008301e900f0
:1004b000fdff3e00040037006128e100010032002a
:1004c0000082eb00040007001101ba000200e00006
:1004d000e8ff3a00000006003159ba008301e90044
:1004e0000c0032002159ba008301e90008003200f3
:1004f0000400e00003003a00e280400032a0b400b3
:10050000f5ff370011d9ba008301e900faff3a007c
:100510008100e800e180400032a0b4000000060045
:080520000040da000000fe00bb
:020000040000fa
:0200000401f009
:04000000ffff0000fe
:020000040000fa
:0200000401f009
:04000400ffff0000fa
:020000040000fa
:0200000401f009
:04000800ffff0000f6
:020000040000fa
:0200000401f009
:04000c00fbff0000f6
:020000040000fa
:0200000401f009
:040010001eff0000cf
:020000040000fa
:0200000401f009
:0400140060ff000089
:020000040000fa
:0200000401f009
:04001800ffff0000e6
:020000040000fa
:1000080090020000900200009002000090020000a0
:100018009002000090020000900200009002000090
:10002800900200009002000090020000740400009a
:100038009002000090020000900200009002000070
:100048009002000090020000900200009002000060
:100058009002000090020000900200009002000050
:100068009002000090020000900200009002000040
:100078009002000090020000900200009002000030
:100088009002000090020000900200009002000020
:100098009002000090020000900200009002000010
:1000a8009002000090020000900200009002000000
:1000b80090020000900200009002000090020000f0
:1000c80090020000900200009002000090020000e0
:1000d80090020000900200009002000090020000d0
:1000e80090020000900200009002000090020000c0
:1000f80090020000900200009002000090020000b0
:10010800900200009002000090020000900200009f
:10011800900200009002000090020000900200008f
:10012800900200009002000090020000900200007f
:10013800900200009002000090020000900200006f
:10014800900200009002000090020000900200005f
:10015800900200009002000090020000900200004f
:10016800900200009002000090020000900200003f
:10017800900200009002000090020000900200002f
:10018800900200009002000090020000900200001f
:10019800900200009002000090020000900200000f
:1001a80090020000900200009002000090020000ff
:1001b80090020000900200009002000090020000ef
:1001c80090020000900200009002000090020000df
:1001d80090020000900200009002000090020000cf
:1001e80090020000900200009002000090020000bf
:0801f8009002000090020000db
:020000040000fa
:10020800900200009002000090020000900200009e
:10021800900200009002000090020000900200008e
:100228009002000090020000900200007404000098
:10023800900200009002000090020000900200006e
:10024800900200009002000090020000900200005e
:10025800900200009002000090020000900200004e
:10026800900200009002000090020000900200003e
:10027800900200009002000090020000900200002e
:10028800900200009002000090020000900200001e
:10029800900200009002000090020000900200000e
:1002a80090020000900200009002000090020000fe
:1002b80090020000900200009002000090020000ee
:1002c80090020000900200009002000090020000de
:1002d80090020000900200009002000090020000ce
:1002e80090020000900200009002000090020000be
:1002f80090020000900200009002000090020000ae
:10030800900200009002000090020000900200009d
:10031800900200009002000090020000900200008d
:10032800900200009002000090020000900200007d
:10033800900200009002000090020000900200006d
:10034800900200009002000090020000900200005d
:10035800900200009002000090020000900200004d
:10036800900200009002000090020000900200003d
:10037800900200009002000090020000900200002d
:10038800900200009002000090020000900200001d
:10039800900200009002000090020000900200000d
:1003a80090020000900200009002000090020000fd
:1003b80090020000900200009002000090020000ed
:1003c80090020000900200009002000090020000dd
:1003d80090020000900200009002000090020000cd
:1003e80090020000900200009002000090020000bd
:0803f8009002000090020000d9
:020000040000fa
:100528000000fa0081c6bf00f041b30081e6b700c1
:1005380082c6bf00f041b30082e6b70086c6bf009e
:10054800f041b30086e6b70087c6bf00f041b300ac
:1005580087e6b70088c6bf00f041b30088e6b70059
:1005680089c6bf00f041b30089e6b7008ec6bf0058
:10057800f041b3008ee6b7008fc6bf00f041b3006c
:100588008fe6b70094c6bf00f041b30094e6b70009
:1005980095c6bf00f041b30095e6b70096c6bf0008
:1005a800f041b30096e6b70098c6bf00f041b3002b
:1005b80098e6b7009ac6bf00f041b3009ae6b700c4
:1005c8009cc6bf00f041b3009ce6b7009dc6bf00c3
:1005d800f041b3009de6b7009ec6bf00f041b300ee
:1005e8009ee6b700a0c6bf00f041b300a0e6b70082
:1005f800a1c6bf00f041b300a1e6b700a2c6bf0084
:10060800f041b300a2e6b700a4c6bf00f041b300b2
:10061800a4e6b700a5c6bf00f041b300a5e6b70041
:10062800a6c6bf00f041b300a6e6b700a7c6bf0044
:10063800f041b300a7e6b700a8c6bf00f041b30079
:10064800a8e6b700a9c6bf00f041b300a9e6b70005
:10065800aac6bf00f041b300aae6b700acc6bf0007
:10066800f041b300ace6b700adc6bf00f041b3003f
:10067800ade6b700aec6bf00f041b300aee6b700c6
:10068800b4c6bf00f041b300b4e6b700016c200067
:100698009140780000ceb30000c06000c0e6b7000b
:1006a800116c20009140780000ceb30000c06000bb
:1006b800c1e6b700216c20009140780000ceb3005d
:1006c80000c06000c2e6b700316c2000914078009d
:1006d80000ceb30000c06000c3e6b700416c200044
:1006e8009140780000ceb30000c06000c4e6b700b7
:1006f800516c20009140780000ceb30000c060002b
:10070800c5e6b700616c20009140780000ceb300c8
:1007180000c06000c6e6b700716c20009140780008
:1007280000ceb30000c06000c7e6b700816c2000af
:100738009140780000ceb30000c06000c8e6b70062
:10074800916c20009140780000ceb30000c060009a
:10075800c9e6b700a16c20009140780000ceb30034
:1007680000c06000cae6b700b16c20009140780074
:1007780000ceb30000c06000cbe6b700c16c20001b
:100788009140780000ceb30000c06000cce6b7000e
:10079800d16c20009140780000ceb30000c060000a
:1007a800cde6b700e16c20009140780000ceb300a0
:1007b80000c06000cee6b700f16c200091407800e0
:1007c80000ceb30000c06000cfe6b7000080fa009a
:1007d800000006000000fa000000eb00004088005e
:1007e80003003700004080000000e8000040880057
:1007f80001408000f0702200808f5000f9ff360021
:1008080020002000203a880060022000303a88004a
:1008180010302000103a880042c7bf000042b200e2
:100828000004e000fcff3200c082a9000000eb00d9
:1008380000088800400d23001008880000022800e6
:10084800200888008460a900510a2000914078009f
:10085800f0c8b30000c0600001c2b30001407000de
:10086800a5e0b7009460a800014080003006200091
:10087800808f5000fcff36000000eb00004088002d
:100888000000370000408000114080000100500047
:10089800ea0f5000fbff3600c4c2bf000080fb0017
:1008a8004400de000004a200614060006140600076
:1008b80061406000614060004401dd00412c20007f
:1008c80091407800f0ceb30000c060000240700094
:1008d800c4e2b7000040800010408800e9ff3700fc
:1008e800801f78003400f80000002000a001880074
:1008f8000000fa00004080000000e8000040880086
:100908008460a9000080fa003400f9004f007800e4
:040918000040060095
:020000040000fa
:10091c0000080000040000000200000000000000bd
:08092c000000000000000000c3
:00000001FF
