:020000040000fa
:080000000002040000000000f2
:020000040000fa
:100400002f9020000e7f24000e01880000000000c5
:100410000c000700403b20000100200011000700f5
:10042000000020000000e000020032000000020096
:100430000000000074030200000000000040da0029
:100440000000fe004440a900000020000000e00081
:100450000300320000002000a00188004440a800f2
:100460000000060091018800800078000000eb0089
:1004700015003700e280400032a0b4009101ba00bc
:10048000e280400032a0b4009102ba00e280400055
:1004900032a0b4000002eb00472bde00f507b200eb
:1004a000602ce10004003a000059eb008301e900f0
:1004b000fdff3e00040037006128e100010032002a
:1004c0000082eb00040007001101ba000200e00006
:1004d000e8ff3a00000006003159ba008301e90044
:1004e0000c0032002159ba008301e90008003200f3
:1004f0000400e00003003a00e280400032a0b400b3
:10050000f5ff370011d9ba008301e900faff3a007c
:100510008100e800e180400032a0b4000000060045
:080520000040da000000fe00bb
:020000040000fa
:0200000401f009
:04000000ffff0000fe
:020000040000fa
:0200000401f009
:04000400ffff0000fa
:020000040000fa
:0200000401f009
:04000800ffff0000f6
:020000040000fa
:0200000401f009
:04000c00fbff0000f6
:020000040000fa
:0200000401f009
:040010001eff0000cf
:020000040000fa
:0200000401f009
:0400140060ff000089
:020000040000fa
:0200000401f009
:04001800ffff0000e6
:020000040000fa
:1000080090020000900200009002000090020000a0
:100018009002000090020000900200009002000090
:100028009002000090020000900200007803000097
:100038009002000090020000900200009002000070
:100048009002000090020000900200009002000060
:100058009002000090020000900200009002000050
:100068009002000090020000900200009002000040
:100078009002000090020000900200009002000030
:100088009002000090020000900200009002000020
:100098009002000090020000900200009002000010
:1000a8009002000090020000900200009002000000
:1000b80090020000900200009002000090020000f0
:1000c80090020000900200009002000090020000e0
:1000d80090020000900200009002000090020000d0
:1000e80090020000900200009002000090020000c0
:1000f80090020000900200009002000090020000b0
:10010800900200009002000090020000900200009f
:10011800900200009002000090020000900200008f
:10012800900200009002000090020000900200007f
:10013800900200009002000090020000900200006f
:10014800900200009002000090020000900200005f
:10015800900200009002000090020000900200004f
:10016800900200009002000090020000900200003f
:10017800900200009002000090020000900200002f
:10018800900200009002000090020000900200001f
:10019800900200009002000090020000900200000f
:1001a80090020000900200009002000090020000ff
:1001b80090020000900200009002000090020000ef
:1001c80090020000900200009002000090020000df
:1001d80090020000900200009002000090020000cf
:1001e80090020000900200009002000090020000bf
:0801f8009002000090020000db
:020000040000fa
:10020800900200009002000090020000900200009e
:10021800900200009002000090020000900200008e
:100228009002000090020000900200007803000095
:10023800900200009002000090020000900200006e
:10024800900200009002000090020000900200005e
:10025800900200009002000090020000900200004e
:10026800900200009002000090020000900200003e
:10027800900200009002000090020000900200002e
:10028800900200009002000090020000900200001e
:10029800900200009002000090020000900200000e
:1002a80090020000900200009002000090020000fe
:1002b80090020000900200009002000090020000ee
:1002c80090020000900200009002000090020000de
:1002d80090020000900200009002000090020000ce
:1002e80090020000900200009002000090020000be
:1002f80090020000900200009002000090020000ae
:10030800900200009002000090020000900200009d
:10031800900200009002000090020000900200008d
:10032800900200009002000090020000900200007d
:10033800900200009002000090020000900200006d
:10034800900200009002000090020000900200005d
:10035800900200009002000090020000900200004d
:10036800900200009002000090020000900200003d
:10037800900200009002000090020000900200002d
:10038800900200009002000090020000900200001d
:10039800900200009002000090020000900200000d
:1003a80090020000900200009002000090020000fd
:1003b80090020000900200009002000090020000ed
:1003c80090020000900200009002000090020000dd
:1003d80090020000900200009002000090020000cd
:1003e80090020000900200009002000090020000bd
:0803f8009002000090020000d9
:020000040000fa
:10052800f0c1b3008166b7008266b7008666b7007f
:100538008766b7008866b7008966b7008e66b70019
:100548008f66b7009466b7009566b7009666b700e1
:100558009866b7009a66b7009c66b7009d66b700b4
:100568009e66b700a066b700a166b700a266b7008e
:10057800a466b700a566b700a666b700a766b70069
:10058800a866b700a966b700aa66b700ac66b70048
:10059800ad66b700ae66b700b466b700c0c6bf00a8
:1005a80001ceb30001406000c0e6b700c1c6bf007d
:1005b80001406000c1e6b700c2c6bf00014060004c
:1005c800c2e6b700c3c6bf0001406000c3e6b7007b
:1005d800c4c6bf0001406000c4e6b700c5c6bf007e
:1005e80001406000c5e6b700c6c6bf000140600014
:1005f800c6e6b700c7c6bf0001406000c7e6b7003f
:10060800c8c6bf0001406000c8e6b700c9c6bf0041
:1006180001406000c9e6b700cac6bf0001406000db
:10062800cae6b700cbc6bf0001406000cbe6b70002
:10063800ccc6bf0001406000cce6b700cdc6bf0005
:1006480001406000cde6b700cec6bf0001406000a3
:10065800cee6b700cfc6bf0001406000cfe6b700c6
:1006680000000600c082a900000006000028ef0074
:1006780001408000f0702200808f500005003e008d
:10068800800078000028ec0000408000810f5000b6
:10069800fcff360028000700f2ff07000021ef00ea
:1006a80080fc2a0010088800000228002008880022
:1006b8008460a900a5c0bf00f1c8b3000140600074
:1006c8000054a000a5e0b7009460a80031062000ff
:1006d80000408000810f5000fdff3600000006003a
:1006e800e2ff0700ffff3700809fbe003400f800dc
:1006f80000002000a0018800c4c2bf000080fb00e9
:100708004400de000004a200614060004400dd00f7
:10071800412c2000914078000144a10080c0700065
:1007280001007800c4e2b7008460a9003400f90031
:100738004f00be000040060020002000203a88003c
:1007480060022000303a880010302000103a8800fb
:1007580042c7bf000058a300fdff3200000006009a
:020000040000fa
:100768000008000002000000020000000000000075
:04077800000000007d
:00000001FF
