:020000040000fa
:080000000002040000000000f2
:020000040000fa
:100400004fb320000e7f24000e0188000000000082
:100410000c000700c073200001002000110007003d
:10042000000020000000e000020032000000020096
:1004300000000000b4050200000000000040da00e7
:100440000000fe004440a900000020000000e00081
:100450000300320000002000a00188004440a800f2
:100460000000060091018800800078000000eb0089
:1004700015003700e280400032a0b4009101ba00bc
:10048000e280400032a0b4009102ba00e280400055
:1004900032a0b4000002eb00472bde00f507b200eb
:1004a000602ce10004003a000059eb008301e900f0
:1004b000fdff3e00040037006128e100010032002a
:1004c0000082eb00040007001101ba000200e00006
:1004d000e8ff3a00000006003159ba008301e90044
:1004e0000c0032002159ba008301e90008003200f3
:1004f0000400e00003003a00e280400032a0b400b3
:10050000f5ff370011d9ba008301e900faff3a007c
:100510008100e800e180400032a0b4000000060045
:100520000040da000000fe000a00fa0080017800b6
:10053000e20f500028003e0000508000e10f500004
:1005400008003200802320000000e0000500320097
:10055000042320002523200046232000800178006a
:10056000040037000422200025222000462220001b
:1005700083222000144090000004e00004003500b5
:100580008009eb00144090000074a0001042980015
:10059000154090000028a30003003a001540900089
:1005a0000024a000904298008001eb000700370073
:1005b000154090000008a300fdff320063c07800e2
:1005c0000000fb00000b78008301e800828f5100df
:1005d000f7ff3a000800370030002000b0bf9f004e
:1005e000c3bf9f00d1bf9f00e2bf9f006a8057003a
:1005f00000c0da006fb99700020078000080fa00ae
:1006000000000600889fbe00000178000104780009
:10061000b10090000118a3003d0032000198a30032
:1006200003003a00180090000000e00038003a0093
:100630000190a0003104980082047800f90fb20004
:10064000180090000000e00002003a00280090002e
:10065000000c7800ea8f540006003a003800900041
:100660000078a30003003a0088007800d000200042
:10067000e4ff07009800900058009000808f500021
:100680000b0032000100e800100498001800780008
:1006900009587800000c780011c0b30020a3200096
:1006a00001487800ea8f5400060032001900370034
:1006b000880078000940780019000700800478005d
:1006c00014003700380090000088a30011003200a9
:1006d00018019000a80090004800900092ff0700c9
:1006e00098009000810f5000040032003800900004
:1006f0000003b300300498008084eb000000eb009e
:100700001004980028009000000c780001003700c9
:100710008084eb00090078004f04be000000060052
:100720000200fa00889fbe00a0ff9f00010478002d
:10073000b1009000810478000904b2000200320088
:100740000000fb00360037000118a30005003a0046
:100750000103b30031049800190498000080eb00f5
:100760002f003700580090000000e00006003a001b
:100770004800900012002000e68057006aff070042
:100780001904980024003700280090000000e000c1
:1007900008003a00e0a2200020049800000c780035
:1007a0002000200050049800100498000130a000a0
:1007b0003104980018019000a800900048009000b3
:1007c00059ff070028009000000c78000080eb0023
:1007d0001004980018007800aff8970001587800ce
:1007e000000c78002ff89700ea4f50000a003a00fa
:1007f000380090000088a300070032001801900024
:10080000a80090004800900047ff070019049800d6
:10081000a8009000010c7800aff897000100fb00e1
:0c0820004f04be000080fa00000006003b
:020000040000fa
:0200000401f009
:04000000ffff0000fe
:020000040000fa
:0200000401f009
:04000400ffff0000fa
:020000040000fa
:0200000401f009
:04000800ffff0000f6
:020000040000fa
:0200000401f009
:04000c00fbff0000f6
:020000040000fa
:0200000401f009
:040010001eff0000cf
:020000040000fa
:0200000401f009
:0400140060ff000089
:020000040000fa
:0200000401f009
:04001800ffff0000e6
:020000040000fa
:1000080090020000900200009002000090020000a0
:100018009002000090020000900200009002000090
:10002800900200009002000090020000c20500004b
:100038009002000090020000900200009002000070
:100048009002000090020000900200009002000060
:100058009002000090020000900200009002000050
:100068009002000090020000900200009002000040
:100078009002000090020000900200009002000030
:100088009002000090020000900200009002000020
:1000980090020000900200009e0600006806000022
:1000a8009002000090020000900200009002000000
:1000b80090020000900200009002000090020000f0
:1000c80090020000900200009002000090020000e0
:1000d80090020000900200009002000090020000d0
:1000e80090020000900200009002000090020000c0
:1000f80090020000900200009002000090020000b0
:10010800900200009002000090020000900200009f
:10011800900200009002000090020000900200008f
:10012800900200009002000090020000900200007f
:10013800900200009002000090020000900200006f
:10014800900200009002000090020000900200005f
:10015800900200009002000090020000900200004f
:10016800900200009002000090020000900200003f
:10017800900200009002000090020000900200002f
:10018800900200009002000090020000900200001f
:10019800900200009002000090020000900200000f
:1001a80090020000900200009002000090020000ff
:1001b80090020000900200009002000090020000ef
:1001c80090020000900200009002000090020000df
:1001d80090020000900200009002000090020000cf
:1001e80090020000900200009002000090020000bf
:0801f8009002000090020000db
:020000040000fa
:10020800900200009002000090020000900200009e
:10021800900200009002000090020000900200008e
:10022800900200009002000090020000c205000049
:10023800900200009002000090020000900200006e
:10024800900200009002000090020000900200005e
:10025800900200009002000090020000900200004e
:10026800900200009002000090020000900200003e
:10027800900200009002000090020000900200002e
:10028800900200009002000090020000900200001e
:1002980090020000900200009e0600006806000020
:1002a80090020000900200009002000090020000fe
:1002b80090020000900200009002000090020000ee
:1002c80090020000900200009002000090020000de
:1002d80090020000900200009002000090020000ce
:1002e80090020000900200009002000090020000be
:1002f80090020000900200009002000090020000ae
:10030800900200009002000090020000900200009d
:10031800900200009002000090020000900200008d
:10032800900200009002000090020000900200007d
:10033800900200009002000090020000900200006d
:10034800900200009002000090020000900200005d
:10035800900200009002000090020000900200004d
:10036800900200009002000090020000900200003d
:10037800900200009002000090020000900200002d
:10038800900200009002000090020000900200001d
:10039800900200009002000090020000900200000d
:1003a80090020000900200009002000090020000fd
:1003b80090020000900200009002000090020000ed
:1003c80090020000900200009002000090020000dd
:1003d80090020000900200009002000090020000cd
:1003e80090020000900200009002000090020000bd
:0803f8009002000090020000d9
:020000040000fa
:10082c000000fa0081c6bf00f041b30081e6b700ba
:10083c0082c6bf00f041b30082e6b70086c6bf0097
:10084c00f041b30086e6b70087c6bf00f041b300a5
:10085c0087e6b70088c6bf00f041b30088e6b70052
:10086c0089c6bf00f041b30089e6b7008ec6bf0051
:10087c00f041b3008ee6b7008fc6bf00f041b30065
:10088c008fe6b70094c6bf00f041b30094e6b70002
:10089c0095c6bf00f041b30095e6b70096c6bf0001
:1008ac00f041b30096e6b70098c6bf00f041b30024
:1008bc0098e6b7009ac6bf00f041b3009ae6b700bd
:1008cc009cc6bf00f041b3009ce6b7009dc6bf00bc
:1008dc00f041b3009de6b7009ec6bf00f041b300e7
:1008ec009ee6b700a0c6bf00f041b300a0e6b7007b
:1008fc00a1c6bf00f041b300a1e6b700a2c6bf007d
:10090c00f041b300a2e6b700a4c6bf00f041b300ab
:10091c00a4e6b700a5c6bf00f041b300a5e6b7003a
:10092c00616a20009140780000ceb30000c06000e6
:10093c000014a000a6e6b700a7c6bf00f041b300a4
:10094c00a7e6b700a8c6bf00f041b300a8e6b70001
:10095c00a9c6bf00f041b300a9e6b700aac6bf0004
:10096c00f041b300aae6b700acc6bf00f041b3003b
:10097c00ace6b700adc6bf00f041b300ade6b700c2
:10098c00aec6bf00f041b300aee6b700b4c6bf00c0
:10099c00f041b300b4e6b700016c20009140780040
:1009ac0000ceb30000c06000c0e6b700116c2000a0
:1009bc009140780000ceb30000c06000c1e6b700e3
:1009cc00216c20009140780000ceb30000c0600084
:1009dc00c2e6b700316c20009140780000ceb30025
:1009ec0000c060005040b300c3e6b700416c20006b
:1009fc009140780000ceb30000c06000c4e6b700a0
:100a0c00516c20009140780000ceb30000c0600013
:100a1c00c5e6b700616c20009140780000ceb300b1
:100a2c0000c06000c6e6b700716c200091407800f1
:100a3c0000ceb30000c06000c7e6b700816c200098
:100a4c009140780000ceb30000c06000c8e6b7004b
:100a5c00916c20009140780000ceb30000c0600083
:100a6c00c9e6b700a16c20009140780000ceb3001d
:100a7c0000c06000cae6b700b16c2000914078005d
:100a8c0000ceb30000c06000cbe6b700c16c200004
:100a9c009140780000ceb30000c06000cce6b700f7
:100aac00d16c20009140780000ceb30000c06000f3
:100abc00cde6b700e16c20009140780000ceb30089
:100acc0000c06000cee6b700f16c200091407800c9
:100adc0000ceb30000c06000cfe6b7000080fa0083
:100aec00000006000000fa00c002a900c022a90004
:100afc00c042a900c062a900c082a900c802a90016
:100b0c00c822a900c842a800c862a900c882a900ce
:100b1c00c8a2a900c8c2a900c8e2a900c902a900bc
:100b2c00c922a900c942a900c962a900c982a900a9
:100b3c00c9a2a900c9c2a900c9e2a9002c03a90035
:100b4c002c23a9002c43a9002c63a9002c83a800fa
:100b5c002ca3a9000080fa00000006000200fa0095
:100b6c00890007000000eb00000f78003006200021
:100b7c001c000700fdff3700809fbe00821f78001d
:100b8c003400f80000002000a00188000000fa00ea
:100b9c00c4c2bf000080fb004400de000004a200c1
:100bac006140600061406000614060006140600035
:100bbc004401dd00412c200091407800f0ceb300c0
:100bcc0000c0600002407000c4e2b7008460a9005d
:100bdc000080fa003400f9004f0178004f00be008d
:100bec00004006000200fa00000f780033c2bf007c
:100bfc00614060000004e000030032001e00780039
:100c0c00a01188000a00370022a0200012417800b1
:100c1c008281fb001e00780080407800008020005c
:100c2c0000804100014878000240e80002eab70069
:100c3c000000eb000080fa00000006000200fa0041
:100c4c00000f78000600370061a120001e0078001c
:100c5c00104078000000fb001e0fe80066fe070045
:100c6c001e007800104078000004e000f6ff3a0007
:100c7c000080fa00000006000200fa000a003700ab
:100c8c0052a02000124178008280fb0000902000ce
:100c9c0000804000104078000080fb00000f7800be
:100cac000240e80005eab70041a02000914078001e
:100cbc0005cabf0080cf5000f1ff3a000080fa0057
:100ccc0000000600809fbe00821f78003400f800f0
:100cdc0000002000a00188000000fa0087e0a900b5
:100cec0021a020009140780003cabf0080cf5000a3
:100cfc000a00320032a02000124178008280fb00f2
:100d0c000080200000804000104078000080fb0034
:100d1c00a01188000240e80003eab7000080fa0046
:100d2c003400f9004f0178004f00be00004006006f
:100d3c00809fbe00829fbe003400f800000020009f
:100d4c00a00188000000fa0087c0a90042a0200082
:100d5c00124178008281fb00b01180008040780045
:100d6c000090200000804100014878000240e8001b
:100d7c0004eab7000080fa003400f9004f01be000d
:100d8c004f00be00004006000000fa000000eb001f
:100d9c003050880003003700305080000000e8001d
:100dac003050880031508000f0702200808f50004d
:100dbc00f9ff36004d0007004aff07000000eb006a
:100dcc000008880000532700100888000002280043
:100ddc00200888008460a900510a20009140780006
:100dec0000c7b30000c07000a5e0b7009460a80075
:100dfc003150800030062000808f5000fcff360000
:100e0c0060052000c01188000000220090118800ad
:100e1c00800020008011880031e2a8003342a80035
:100e2c0087e0a900310b200091407800f0c8b30096
:100e3c0000c0600001c3b30001407000b3e0b70014
:100e4c0097e0a80087c0a900310b200091407800e2
:100e5c0080cfb30000c060006040b300b3e0b700c7
:0c0e6c0097c0a8000080fa0000000600fb
:020000040000fa
:100e7800000a000006000000020000000200000056
:100e88000000000000080000000200000000000050
:100e9800060a000002000000020000000000000036
:100ea800080a000026000000020000000a0a3000bc
:100eb8000a000000300a09000000000002002e00ad
:100ec8000a0000002e0a06000201000000000000cf
:100ed8000000000000000600020200000000000000
:100ee8002e0a0000060000000000000000000000bc
:020000040000fa
:100ef8000000fa0020002000203a8800600220004c
:100f0800303a880010302000103a880042c7bf00ed
:100f18000042b2000004e000fcff32000080fa004a
:040f280000000600bf
:00000001FF
